:020000040000FA
:060000000A128A11EE2F26
:100C1A000A128A1113260A128A110800831603136C
:100C2A0088010508C339850008003F3406345B345F
:100C3A004F3466346D347D3407347F346F347E0824
:100C4A008A007F0882000A128A1124260A128A114F
:100C5A008000840A04087D0603190034FF0A031978
:100C6A00FE0A282E7008710403193C2E3D2E6C2EA4
:100C7A00F501F50A4B2E01300310F00DF10DFF3E80
:100C8A00031D412E0130F4007408F507F11F4E2EA2
:100C9A004F2E402E71087302031D552E70087202E2
:100CAA00031C582E592E5F2E7008F2027108031C7D
:100CBA00F303F30201300310F10CF00CFF3E031DA5
:100CCA00602E0130F502031D6B2E6C2E4F2E730819
:100CDA00F1007208F0000800FB01FC0176087704B5
:100CEA000319782E792EB02EFD01FD0A872E0130C8
:100CFA000310F60DF70DFF3E031D7D2E0130FA009D
:100D0A007A08FD07F71F8A2E8B2E7C2E01300310DE
:100D1A00FB0DFC0DFF3E031D8C2E77087902031D87
:100D2A00982E76087802031C9B2E9C2EA32E7608FA
:100D3A00F8027708031CF903F9027B140130031047
:100D4A00F70CF60CFF3E031DA42E0130FD02031D15
:100D5A00AF2EB02E8B2E7C08F7007B08F600080019
:100D6A00F8000030FC000030FB000030FA000030D0
:100D7A00F90079087807F0007008840083130008E6
:100D8A008312031388000430F000790ACE2E031070
:100D9A00F00DFF3E031DCC2E0508033970048500B3
:100DAA000030F7000030F6004E30F5002030F40035
:100DBA000130F0000030F1000030F2000030F300A2
:100DCA007008F4027108031C710FEC2EED2EF50267
:100DDA007208031C720FF22EF32EF6027308031C1C
:100DEA00730FF82EF92EF702740A031D062F750ADF
:100DFA00031D062F760A031D062F770A031D062FE9
:100E0A00072FDD2E0130F907003003180130FA07E9
:100E1A00003003180130FB07003003180130FC07CB
:100E2A007C08031D262F7B08031D262F7A08031D25
:100E3A00262F04307902031D222F031C252F262F6B
:100E4A00BE2E080083120313B401B501E830B200C4
:100E5A000330B300243084003630A0000408A10017
:100E6A000A30A2002008840083130008A300A00A05
:100E7A002108840023088000A10AA20B372F0A1236
:100E8A008A110D260A128A11013083120313B20243
:100E9A000030031CB303B302320A031D582F330A6E
:100EAA00031D582F592F492F4030B2009C30B300F0
:100EBA000130B4070318B50A0030B507033035020C
:100ECA00E83003193402031C6B2F6C2F6E2FB40108
:100EDA00B501E830F6000330F7003508F9003408A8
:100EEA00F8000A128A1171260A128A117608243E1B
:100EFA0084008313000883120313A0002008AE00A5
:100F0A006430F6000030F7003508F3003408F200C8
:100F1A00E830F0000330F1000A128A1137260A126B
:100F2A008A117108F9007008F8000A128A117126EC
:100F3A000A128A117608243E840083130008831259
:100F4A000313A0002008AF000A30F6000030F700B3
:100F5A003508F3003408F2006430F0000030F10084
:100F6A000A128A1137260A128A117108F9007008C2
:100F7A00F8000A128A1171260A128A117608243E8A
:100F8A0084008313000883120313A0002008B00012
:100F9A000A30F0000030F1003508F3003408F2009E
:100FAA000A128A1137260A128A117008243E84000E
:100FBA008313000883120313A0002008B1002E3007
:100FCA000A128A11B5260A128A11492F0A128A119F
:100FDA00002883134030FD000630FE001A30FF005F
:100FEA00363084000A128A1128260A128A118301CD
:060FFA000A128A11272FE4
:02400E00FB3F76
:00000001FF
