:020000040000FA
:060000000A128A11FC2F18
:100F5600831603139F17831203131F1408008312AB
:100F6600031388018316031388010A128A11AB271B
:100F76000A128A1108000230710200300319700249
:100F8600031CC62FC72FCB2F831203130814CE2F93
:100F96008312031308100800831203131F151F1969
:100FA600D52FD62FD22F1E08F300831603131E0843
:100FB600F2007308F1007208F00008000A128A11A4
:100FC600B2270A128A110A128A11CF270A128A1127
:100FD6007108F5007008F4007508F1007408F00057
:100FE6000A128A11BE270A128A11E62F0A128A11DC
:0A0FF600002883010A128A11E12F7E
:02400E00FB3F76
:00000001FF
