:020000040000FA
:060000000A128A110C280F
:10000800FE00030EF0000A08F1000A128A116328A4
:100018000A128A110F2883010A128A11132809303B
:10002800F2007208FA000A128A1173200A128A1161
:100038007A080319202821285A280230831203132A
:1000480088060030F9000130F8008630F700A0304B
:10005800F6000130F2000030F3000030F400003008
:10006800F5007208F6027308031C730F3C283D283C
:10007800F7027408031C740F42284328F802750815
:10008800031C750F48284928F902760A031D5628CB
:10009800770A031D5628780A031D5628790A031D76
:1000A800562857282D280130FA021C280930F2005A
:1000B8007208FA0063001C280A128A110C288B1C8B
:1000C800662867286C2801308312031388068B1072
:1000D80071088A00700E8300FE0E7E0E09008312DE
:1000E800031388018316031388010A128A118020DA
:1000F8000A128A118B1708008316031301130B16B3
:020108000800ED
:02400E00FB3F76
:00000001FF
