:020000040000FA
:100000000A128A11FC2F00308A000408840A820731
:10001000003455344134523454342034543465342B
:1000200073347434203443346F34643465340A34A4
:040030000D34003457
:100E0800831203138C1E092F0A2F042F8C121A0821
:100E18000800F00070088312031399000C1E152FA8
:100E2800162F122F0C120800003083120313A30090
:100E38000030A2002530A1008030A0000A128A11DB
:100E480066270A128A1101300A128A1147270A12E4
:100E58008A1108000A128A1118270A128A110A121E
:100E68008A1104270A128A1183120313A80028087A
:100E7800A90029080A128A110D270A128A11332F8C
:100E88000A128A110028F200592F720884000A12E7
:100E98008A1103200A128A110A128A110D270A12CE
:100EA8008A110130F1007108F207720884000A12F1
:100EB8008A1103200A128A11003A031D642F652F34
:100EC800492F080083120313981718162008A40046
:100ED8002108A5002208A6002308A7000430031053
:100EE800A40DA50DA60DA70DFF3E031D732F270802
:100EF800F3002608F2002508F1002408F00001306C
:100F0800F7003130F6002D30F5000030F4000A12F9
:100F18008A1196270A128A117008FF3E8316031356
:100F2800990008000030FC000030FB000030FA0097
:100F38000030F90073087204710470040319A52FB6
:100F4800A62FF32FFD01FD0AB62F0130F80003107C
:100F5800F00DF10DF20DF30DF80BAB2F0130F80089
:100F68007808FD07F31FB92FBA2FA92F0130F80011
:100F78000310F90DFA0DFB0DFC0DF80BBC2F7308CF
:100F88007702031DD12F72087602031DD12F710835
:100F98007502031DD12F70087402031CD42FD52F9E
:100FA800E42F7008F4027108031C710FF50272082F
:100FB800031C720FF6027308031C730FF7027914EF
:100FC80001300310F30CF20CF10CF00CFF3E031D82
:100FD800E52F0130FD02031DF22FF32FBA2F7C08F5
:100FE800F3007B08F2007A08F1007908F0000800A5
:080FF80083010A128A112E2F59
:02400E00FB3F76
:00000001FF
