:020000040000FA
:060000000A128A11FC2F18
:100F4A0083120313081083160313081006140800EB
:100F5A000A128A11A5270A128A110030F7000030F6
:100F6A00F6004E30F5002030F40083120313061801
:100F7A00BF2FC02FF72F0130F0000030F1000030F2
:100F8A00F2000030F3007008F4027108031C710FBC
:100F9A00CF2FD02FF5027208031C720FD52FD62F30
:100FAA00F6027308031C730FDB2FDC2FF702740A97
:100FBA00031DE92F750A031DE92F760A031DE92F80
:100FCA00770A031DE92FEA2FBA2F01308312031380
:100FDA0088060030F7000030F6004E30F500203069
:100FEA00F400BA2F0810BA2F0A128A1100288301B6
:060FFA000A128A11AD2F5E
:02400E00FB3F76
:00000001FF
