:020000040000FA
:060000000A128A110C280F
:10000800FE00030EF0000A08F1000A128A11A52862
:100018000A128A110F280A128A11C0200A128A119C
:10002800F80083010A128A1119280A128A119320EA
:100038000A128A1101300A128A1169200A128A11D9
:10004800F400740883120313A4003E302406031D31
:100058002E282F283128023088060030A3000130CE
:10006800A2008630A100A030A0000130F4000030CA
:10007800F5000030F6000030F7007408831203130F
:10008800A0027508031C750F4A284B28A1027608A0
:10009800031C760F50285128A2027708031C770FFB
:1000A80056285728A302200A031D6428210A031D85
:1000B8006428220A031D6428230A031D642865286E
:1000C80039281E280A128A110C28F3007308031D08
:1000D8006E286F2874288312031306083F39922864
:1000E8003F30831203130605F2003F3072060319EE
:1000F8007E287F288628780803198328842886285C
:10010800F8016F283F300605F2003F307206031DE4
:100118008E288F289128F801F80A3F3008008312AA
:10012800031388018316031388010A128A11BB205E
:100138000A128A110A128A11B5200A128A118B171B
:1001480008008B1CA828A928AE28013083120313A5
:1001580088068B1071088A00700E8300FE0E7E0ED2
:1001680009008316031306083F3886000800831623
:0A017800031301130B1608000134F5
:02400E00FB3F76
:00000001FF
