:020000040000FA
:060000000A128A11E72F2D
:100AA40001348316031306083F38860008003F34D8
:100AB40006345B344F3466346D347D3407347F340C
:100AC4006F340A128A1153250A128A110A128A11E2
:100AD4006E250A128A11080083160313880105087B
:100AE400C3398500831203130508C3398500080040
:100AF4007E088A007F0882000A128A117A250A1267
:100B04008A118000840A04087D0603190034FF0A50
:100B14000319FE0A7E2DF1006400831603178C1856
:100B2400942D952D8E2D7108831203178D003F305F
:100B3400F0007008831603178C050C148312031736
:100B44000C080800F1007108031DA92DAA2DAF2D72
:100B54008312031306083F39CD2D3F30831203134C
:100B64000605F0003F3070060319B92DBA2DC12DCA
:100B74007D080319BE2DBF2DC12DFD01AA2D3F30C7
:100B84000605F0003F307006031DC92DCA2DCC2D7B
:100B9400FD01FD0A3F300800F200831603178C188C
:100BA400D42DD52DCF2D7208831203178D00700814
:100BB4008C003F30F1007108831603178C058312F3
:100BC400031303108B1FE72DE82DE92D03148B135A
:100BD400831603170C1555308D00AA308D008C1424
:100BE4000C1183120313031CF82DF92DFA2D8B1706
:100BF4000800F300F40174087307F000700884001F
:100C0400831300088312031388000430F000740A6D
:100C14000D2E0310F00DFF3E031D0B2E0508C339E6
:100C2400700485009030F1000130F2000130F102CF
:100C34000030031CF203F202710A031D252E720A0E
:100C4400031D252E262E182E0130F0007008F407FF
:100C540004307402031C2F2E302EFD2D0800F400E6
:100C64003E307406031D372E382E432E7C08F300C5
:100C74007308F00001300A128A11CE250A128A1173
:100C8400652E3D307406031D482E492E532E013027
:100C94000A128A118D250A128A11F3007308FC00C6
:100CA400652E3B307406031D582E592E652E0130D7
:100CB400F3007308FC070A307C06031D622E632EC2
:100CC400652EFC01652E7C080800F601F31F6B2ECF
:100CD4006C2E732EF209F309F20A0319F30AF601D2
:100CE400F60AF11F762E772E7C2EF009F109F00A10
:100CF4000319F10A700871040319812E822EB12E92
:100D0400F501F50A902E01300310F00DF10DFF3EB0
:100D1400031D862E0130F4007408F507F11F932E8D
:100D2400942E852E71087302031D9A2E7008720288
:100D3400031C9D2E9E2EA42E7008F2027108031C23
:100D4400F303F30201300310F10CF00CFF3E031D1A
:100D5400A52E0130F502031DB02EB12E942E760877
:100D64000319B52EB62EBB2EF209F309F20A0319A4
:100D7400F30A7308F1007208F000080083120313E9
:100D8400A101F81FC62EC72ECE2EF709F809F70ABF
:100D94000319F80AA101A10AFA1FD12ED22EDB2EC3
:100DA400F909FA09F90A0319FA0A0130FB007B0868
:100DB400A106A201A301770878040319E22EE32E09
:100DC4001A2FA001A00AF12E01300310F70DF80D1F
:100DD400FF3E031DE72E0130FB007B08A007F81F30
:100DE400F42EF52EE62E01300310A20DA30DFF3EC6
:100DF400031DF62E78087A02031D022F7708790264
:100E0400031C052F062F0D2F7708F9027808031C01
:100E1400FA03FA02221401300310F80CF70CFF3E17
:100E2400031D0E2F0130A002031D192F1A2FF52EBA
:100E3400210803191E2F1F2F242FA209A309A20A78
:100E44000319A30A2308F8002208F7000800283031
:100E54008400383083120313A4000408A5000A3068
:100E6400A6002408840083130008A700A40A250808
:100E7400840027088000A50AA60B332F0A128A11C2
:100E840063250A128A1101300A128A11A4250A1252
:100E94008A1183120313A4002408B60036080A1228
:100EA4008A1131260A128A1183120313A40024081A
:100EB400B7000A30F0000030F1003708A400A501A3
:100EC4002408F2002508F3000A128A1167260A1280
:100ED4008A117008283E84008313000883120313C8
:100EE400A6002608B5000A30F7000030F8003708DD
:100EF400A400A5012408F2002508F3006430F000E2
:100F04000030F1000A128A1167260A128A11710848
:100F1400FA007008F9000A128A11C0260A128A110E
:100F24007708283E84008313000883120313A60065
:100F34002608B4006430F7000030F8003708A40035
:100F4400A5012408F2002508F300E830F00003307E
:100F5400F1000A128A1167260A128A117108FA002E
:100F64007008F9000A128A11C0260A128A11770839
:100F7400283E84008313000883120313A600260866
:100F8400B300E830F7000330F8003708A400A501E7
:100F94002408F9002508FA000A128A11C0260A1248
:100FA4008A117708283E84008313000883120313F0
:100FB400A6002608B20032300A128A11FB250A1252
:100FC4008A11452F0A128A11002883134230FD002A
:100FD4000530FE005930FF00383084000A128A11AF
:100FE4007E250A128A110A128A1152250A128A11BE
:0C0FF400FD00FC0183010A128A11292F64
:02400E00FB3F76
:00000001FF
