:020000040000FA
:100000000A128A11FC2FFF1B0D2883137F188317F8
:100010000008840A0319FF0A080000308A00040857
:10002000840A820700344134443443342034543445
:100030006534733474340034433430343A34003427
:08004000433431343A3400343A
:100B1400831603139F17831203131F1408008316ED
:100B240003138801091189100A128A11E4260A1292
:100B34008A1108000A128A1191250A128A110A12CE
:100B44008A118A250A128A110130F4008030F500D6
:100B54008430F7007708F6000A128A1101260A1277
:100B64008A110800F5007508F20003300310F20D35
:100B7400FF3E031DB82D831203131F08C7397204E7
:100B84009F001F151F19C72DC82DC42D1E08F40062
:100B9400831603131E08F3007408F1007308F000B1
:100BA40008000A128A119C250A128A1100300A12BE
:100BB4008A11B4250A128A11710883120313A8003A
:100BC4007008A70001300A128A11B4250A128A118A
:100BD400710883120313AA007008A9002808F900F9
:100BE4002708F8002A08FB002908FA000A128A11CB
:100BF40047270A128A11D82D0A128A110028F001F7
:100C040076080A128A1130260A128A111F2EF00160
:100C1400F00A7508FF00740884000A128A11032080
:100C24000A128A110A128A1130260A128A11013014
:100C3400F4070318F50A0030F50775088312031347
:100C4400FF00740884000A128A1103200A128A1110
:100C5400003A031D2E2E2F2E092E0800F3007018C3
:100C6400342E382E8312031309153B2E83120313DB
:100C740009117308F03988008914A630F100F10BCA
:100C8400412E000083120313891073080F39F100F9
:100C940003300310F10DFF3E031D4B2E0310710DA5
:100CA40088008914A630F100F10B562E000083123F
:100CB400031389101B30F2009E30F100F10B602EFB
:100CC400F20B602E000008007008710403196B2EEB
:100CD4006C2E9B2EF501F50A7A2E01300310F00DCF
:100CE400F10DFF3E031D702E0130F4007408F5076A
:100CF400F11F7D2E7E2E6F2E71087302031D842E2C
:100D040070087202031C872E882E8E2E7008F20241
:100D14007108031CF303F30201300310F10CF00C0F
:100D2400FF3E031D8F2E0130F502031D9A2E9B2ECC
:100D34007E2E7308F1007208F0000800F501F60138
:100D4400700871040319A72EA82EDF2EF701F70AE5
:100D5400B62E01300310F00DF10DFF3E031DAC2E35
:100D64000130F4007408F707F11FB92EBA2EAB2E28
:100D740001300310F50DF60DFF3E031DBB2E710867
:100D84007302031DC72E70087202031CCA2ECB2ED9
:100D9400D22E7008F2027108031CF303F3027514D7
:100DA40001300310F10CF00CFF3E031DD32E013073
:100DB400F702031DDE2EDF2EBA2E7608F100750829
:100DC400F0000800C330F500CD30F400F40BE82E39
:100DD400F50BE82EF00133300A128A1130260A127C
:100DE4008A111B30F5009E30F400F40BF72EF50B3E
:100DF400F72E0000F00133300A128A1130260A124D
:100E04008A11A630F400F40B052F0000F0013330F2
:100E14000A128A1130260A128A11102F112F00008B
:100E2400F00102300A128A1130260A128A11A63001
:100E3400F400F40B1B2F0000F00128300A128A1171
:100E440030260A128A11A630F400F40B272F000072
:100E5400F00101300A128A1130260A128A11043074
:100E6400F5003D30F400F40B352FF50B352F3A2FF8
:100E7400F0010C300A128A1130260A128A11A630A7
:100E8400F400F40B432F000008000A30F400803013
:100E9400F500C030FC007C08F6000A128A11012615
:100EA4000A128A11033083120313A5000030A6002E
:100EB4000A30F0000030F1007908F3007808F200FD
:100EC4000A128A1166260A128A117008303EFC0042
:100ED400831203132508203E84007C0883138000BA
:100EE4000A30F0000030F1007908F3007808F200CD
:100EF4000A128A11A0260A128A117108F9007008D0
:100F0400F800FF3083120313A5070318A60AFF3065
:100F1400A607250A031D922F260A031D922F932F3D
:100F24005A2FA4012030F4000030F500C330FC0037
:100F34007C08F6000A128A1101260A128A110E3060
:100F4400F4008030F500C930FC007C08F6000A1279
:100F54008A1101260A128A11033083120313A50091
:100F64000030A6000A30F0000030F1007B08F300E6
:100F74007A08F2000A128A1166260A128A11700887
:100F8400303EFC00831203132508203E84007C08B5
:100F9400831380000A30F0000030F1007B08F30076
:100FA4007A08F2000A128A11A0260A128A1171081C
:100FB400FB007008FA00FF3083120313A50703181F
:100FC400A60AFF30A607250A031DEC2F260A031DD7
:100FD400EC2FED2FB42FA4012030F4000030F500E5
:100FE400CC30FC007C08F6000A128A1101260A1291
:0C0FF4008A11080083010A128A11D32D13
:02400E00FB3F76
:00000001FF
