:020000040000FA
:060000000A128A11FC2F18
:100F24008312031308108316031308100614080011
:100F34000130F8000030F9000030F7000030F6000E
:100F44004E30F5002030F4000A128A1192270A125A
:100F54008A11831203130618B02FB12FF02F7808CB
:100F640079040319B62FB72FF02F0130F0000030A9
:100F7400F1000030F2000030F3007008F402710850
:100F8400031C710FC62FC72FF5027208031C720FC2
:100F9400CC2FCD2FF6027308031C730FD22FD32F3F
:100FA400F702740A031DE02F750A031DE02F760A69
:100FB400031DE02F770A031DE02FE12FAB2F013033
:100FC400831203138806F801F9010030F70000309A
:100FD400F6004E30F5002030F400AB2F061CF32F42
:100FE400F42FAB2F0130F8000030F900AB2F0A12B8
:0C0FF4008A11002883010A128A119A2F2A
:02400E00FB3F76
:00000001FF
