:020000040000FA
:060000000A128A11EC2F28
:100B36000A128A11A1250A128A11080083160313C4
:100B4600880105080339850008003F3406345B3404
:100B56004F3466346D347D3407347F346F347E0809
:100B66008A007F0882000A128A11B2250A128A11A7
:100B76008000840A04087D0603190034FF0A03195D
:100B8600FE0AB62DF601F31FC92DCA2DD12DF20985
:100B9600F309F20A0319F30AF601F60AF11FD42D36
:100BA600D52DDA2DF009F109F00A0319F10A7008BA
:100BB60071040319DF2DE02D0F2EF501F50AEE2D38
:100BC60001300310F00DF10DFF3E031DE42D013041
:100BD600F4007408F507F11FF12DF22DE32D7108CD
:100BE6007302031DF82D70087202031CFB2DFC2DE9
:100BF600022E7008F2027108031CF303F30201309F
:100C06000310F10CF00CFF3E031D032E0130F5021C
:100C1600031D0E2E0F2EF22D76080319132E142EF9
:100C2600192EF209F309F20A0319F30A7308F100FF
:100C36007208F0000800F800F901FA01790878074F
:100C4600F0007008840083130008831203138800E1
:100C56000430F000790A312E0310F00DFF3E031D1B
:100C66002F2E05080339700485000030F700003088
:100C7600F6004E30F5002030F4000130F000003070
:100C8600F1000030F2000030F3007008F402710841
:100C9600031C710F4F2E502EF5027208031C720FA3
:100CA600552E562EF6027308031C730F5B2E5C2E10
:100CB600F702740A031D692E750A031D692E760A4A
:100CC600031D692E770A031D692E6A2E402E0130F8
:100CD600F9070318FA0A0030FA077A08803AFF0083
:100CE60080307F02031D792E04307902031C7C2E8E
:100CF6007D2E212E080083120313A101F81F842ED6
:100D0600852E8C2EF709F809F70A0319F80AA101AE
:100D1600A10AFA1F8F2E902E992EF909FA09F90ABF
:100D26000319FA0A0130FB007B08A106A201A30100
:100D3600770878040319A02EA12ED82EA001A00AA8
:100D4600AF2E01300310F70DF80DFF3E031DA52E43
:100D56000130FB007B08A007F81FB22EB32EA42E8D
:100D660001300310A20DA30DFF3E031DB42E78081B
:100D76007A02031DC02E77087902031CC32EC42EE7
:100D8600CB2E7708F9027808031CFA03FA0222141C
:100D960001300310F80CF70CFF3E031DCC2E01307A
:100DA600A002031DD72ED82EB32E21080319DC2E40
:100DB600DD2EE22EA209A309A20A0319A30A23081B
:100DC600F8002208F7000800003083120313B5006C
:100DD6000030B4000030B3000030B200BA01BA0AE5
:100DE600283084003B30A4000408A5000A30A60081
:100DF6002408840083130008A700A40A2508840099
:100E060027088000A50AA60BFB2E0A128A119B252D
:100E16000A128A11831203130618122F132FE22FB8
:100E26003A080319172F182FE22F0130A4000030BB
:100E3600A5000030A6000030A7002408B20225084D
:100E4600031C250F272F282FB3022608031C260F65
:100E56002D2F2E2FB4022708031C270F332F342FD4
:100E6600B502320A031D412F330A031D412F340AEE
:100E7600031D412F350A031D412F422F0D2F003030
:100E860083120313B5000030B4002730B3001030CE
:100E9600B2000130C5070318C60A0030C607460867
:100EA600803AFF0083307F02031D5B2FE830450246
:100EB600031C5E2F5F2F632F83120313C501C60128
:100EC600E830F7000330F800831203134608FA00EF
:100ED6004508F9000A128A117E260A128A11770835
:100EE600283E84008313000883120313A4002408F9
:100EF600B6006430F7000030F8004608F3004508F5
:100F0600F200E830F0000330F1000A128A11C5251C
:100F16000A128A117108FA007008F9000A128A1179
:100F26007E260A128A117708283E84008313000859
:100F360083120313A4002408B7000A30F700003018
:100F4600F8004608F3004508F2006430F00000306F
:100F5600F1000A128A11C5250A128A117108FA00CF
:100F66007008F9000A128A117E260A128A11770879
:100F7600283E84008313000883120313A400240868
:100F8600B8000A30F0000030F1004608F3004508CA
:100F9600F2000A128A11C5250A128A117008283E23
:100FA60084008313000883120313A4002408B900E5
:100FB60036300A128A111E260A128A110D2F0618B9
:100FC600E52FE62F0D2FC501C6010D2F0A128A1136
:100FD600002883134530FD000530FE00A830FF00D1
:100FE6003B3084000A128A11B6250A128A11C501FD
:0A0FF600C60183010A128A11E72EDA
:02400E00FB3F76
:00000001FF
