:020000040000FA
:100000000A128A11E82FFF1B0D2883137F1883170C
:100010000008840A0319FF0A080000308A00040857
:10002000840A82070034533431342D345234693415
:100030006734683474342034533432342D344C34BF
:100040006534663474340034533465346C34653448
:100050006334743420344D344B34503420344B34B6
:10006000653479343A34003452346934673468344E
:10007000743420345334633472346F346C346C34DD
:1000800069346E34673400344C3465346634743407
:1000900020345334633472346F346C346C346934C8
:0600A0006E3467340034E9
:100A86000134831603138801091189100A128A1189
:100A960031260A128A11080083160313060807383E
:100AA60086000808F039880081138312031388151D
:100AB6000815881408140800203447345F3453346A
:100AC60061346E3464346534653470345F3456345E
:100AD600613472346D3461347E088A007F08820086
:100AE6000A128A116F250A128A118000840A0408E4
:100AF6007D0603190034FF0A0319FE0A732D0A1234
:100B06008A1144250A128A110A128A114F250A12DD
:100B16008A111230F4008030F5008030F700770833
:100B2600F6000A128A11CC250A128A110130F40045
:100B36008030F500C030F7007708F6000A128A11F7
:100B4600CC250A128A110800F3000A128A113C27E2
:100B56000A128A11F2007208F4007308031DB42DFC
:100B6600B52DB72D7408CB2D740A0319BB2DBC2DDA
:100B7600C32D7C080319C02DC12DC32DFC01B52D35
:100B8600740A031DC72DC82DCA2DFC01FC0AFF30AF
:100B96000800F00176080A128A11FB250A128A114A
:100BA600EA2DF001F00A7508FF00740884000A12A5
:100BB6008A1103200A128A110A128A11FB250A12C7
:100BC6008A110130F4070318F50A0030F507750895
:100BD60083120313FF00740884000A128A1103208B
:100BE6000A128A11003A031DF92DFA2DD42D080098
:100BF600F3007018FF2D032E831203130915062E1A
:100C06008312031309117308F03988008914A6307A
:100C1600F100F10B0C2E00008312031389107308E8
:100C26000F39F10003300310F10DFF3E031D162EA0
:100C36000310710D88008914A630F100F10B212EE6
:100C460000008312031389101B30F2009E30F1005E
:100C5600F10B2B2EF20B2B2E00000800C330F500F3
:100C6600CD30F400F40B352EF50B352EF001333074
:100C76000A128A11FB250A128A111B30F5009E30D2
:100C8600F400F40B442EF50B442E0000F001333033
:100C96000A128A11FB250A128A11A630F400F40BF7
:100CA600522E0000F00133300A128A11FB250A1277
:100CB6008A115D2E5E2E0000F00102300A128A11A2
:100CC600FB250A128A11A630F400F40B682E0000E8
:100CD600F00128300A128A11FB250A128A11A63061
:100CE600F400F40B742E0000F00101300A128A1190
:100CF600FB250A128A110430F5003D30F400F40B8E
:100D0600822EF50B822E872EF0010C300A128A11E4
:100D1600FB250A128A11A630F400F40B902E00006F
:100D26000800203084003430F8000408F900103040
:100D3600FA007808840083130008FB00F80A790893
:100D460084007B088000F90AFA0B9C2E0A128A118D
:100D560082250A128A1101300A128A11A7250A125F
:100D66008A11F800780883120313B000300A0319B9
:100D7600BD2EBE2EC22E3008F8007808B10006300F
:100D86003106031DC72EC82E042F2230F4008030F2
:100D9600F5008030F8007808F6000A128A11CC2592
:100DA6000A128A11831203132F08F8007808B2007A
:100DB6000F30F8007808B3003308FF3E203E840069
:100DC60083130008F8003308203E8400780880006A
:100DD6000130B3023308031DF12EF22EDF2E320846
:100DE600F8007808A0002030F4000030F500C0308C
:100DF600F8007808F6000A128A11CC250A128A1120
:100E0600AE2E04303106031D092F0A2FAE2E3230C6
:100E1600F4008030F5008030F8007808F6000A12F9
:100E26008A11CC250A128A11831203132008F800AE
:100E36007808B200B3013308013E203E84008313D4
:100E46000008F8003308203E84007808800001304E
:100E5600F8007808B3070F303302031C332F342F02
:100E66001E2F3208F8007808AF00F62E0A128A11F3
:100E76000028831203138811081588140814643097
:100E8600F0000030F100FF30F0070318F10AFF30E0
:100E9600F107700A031D532F710A031D532F542F98
:100EA600462F831203130618592F5A2F5C2F013031
:100EB600E72F86185F2F602F622F0230E72F061963
:100EC600652F662F682F0330E72F881508118814C1
:100ED60008146430F0000030F100FF30F00703180A
:100EE600F10AFF30F107700A031D7D2F710A031DF9
:100EF6007D2F7E2F702F831203130618832F842FC6
:100F0600862F0430E72F8618892F8A2F8C2F0530DD
:100F1600E72F06198F2F902F922F0630E72F88156F
:100F26000815881008146430F0000030F100FF3016
:100F3600F0070318F10AFF30F107700A031DA72F07
:100F4600710A031DA72FA82F9A2F831203130618C1
:100F5600AD2FAE2FB02F0730E72F8618B32FB42F43
:100F6600B62F0830E72F0619B92FBA2FBC2F093034
:100F7600E72F88150815881408106430F000003033
:100F8600F100FF30F0070318F10AFF30F107700A8D
:100F9600031DD12F710A031DD12FD22FC42F831207
:100FA60003130618D72FD82FDA2F2A30E72F8618E3
:100FB600DD2FDE2FE02F0030E72F0619E32FE42F79
:100FC600E62F2330E72FFF30080083134430FD005F
:100FD6000530FE005F30FF00343084000A128A11AB
:100FE60073250A128A110A128A1143250A128A11D6
:0A0FF600FC0083010A128A11942EF8
:02400E00FB3F76
:00000001FF
