:020000040000FA
:060000000A128A11FC2F18
:100DD0008316031388018312031388010800F301AB
:100DE000F4010A30F5000030F6000A128A11E826F4
:100DF0000A128A110130F3070318F40A0030F407CD
:100E000011307306273003197406031D082F092FAC
:100E1000FA2EF301F401003078020830031977024A
:100E20000318132F142F3A2F0130F5020030031C42
:100E3000F603F602750A031D212F760A031D212FE2
:100E4000222F3A2F0130F000770A282F0310F00DDF
:100E5000FF3E031D262F7008831203130804880029
:100E60000130F7070318F80A0030F8070A30F500D8
:100E70000030F60000307802083003197702031CB6
:100E8000422F432F752F003078021030031977025C
:100E900003184B2F4C2F752F0130F5020030031C27
:100EA000F603F602750A031D592F760A031D592F02
:100EB0005A2F752F0130F0007708F83E013E622F5F
:100EC0000310F00DFF3E031D602F7008FF3A8312E0
:100ED0000313080588000130F7070318F80A0030EB
:100EE000F8070A30F5000030F600003078021030C4
:100EF00003197702031C7D2F7E2FB22F003078025A
:100F00001830031977020318862F872FB22F01306C
:100F1000F5020030031CF603F602750A031D942F38
:100F2000760A031D942F952FB22F7708F03EF0001C
:100F3000F00A8030F1000030F200A12F720DF20CA7
:100F4000F10CF00B9E2F7108831203130804880024
:100F50000130F7070318F80A0030F8070A30F500E7
:100F60000030F60000307802183003197702031CB5
:100F7000BA2FBB2FEF2F00307802203003197702F1
:100F80000318C32FC42FEF2F0130F5020030031CCC
:100F9000F603F602750A031DD12F760A031DD12F21
:100FA000D22FEF2F7708E83EF000F00A7F30F100F3
:100FB000FF30F200DE2F720DF20CF10CF00BDB2F84
:100FC000710883120313080588000130F70703181E
:100FD000F80A0030F8070A30F5000030F60020303B
:100FE00077067804031DF52FF62FFA2EF701F80186
:100FF000FA2E0A128A11002883010A128A11EF2E92
:02400E00FB3F76
:00000001FF
